{
  "_format": "hh-sol-artifact-1",
  "contractName": "FaithToken",
  "sourceName": "contracts/FaithToken.sol",
  "abi": [
    {
      "inputs": [],
      "stateMutability": "nonpayable",
      "type": "constructor"
    },
    {
      "anonymous": false,
      "inputs": [
        {
          "indexed": true,
          "internalType": "address",
          "name": "owner",
          "type": "address"
        },
        {
          "indexed": true,
          "internalType": "address",
          "name": "spender",
          "type": "address"
        },
        {
          "indexed": false,
          "internalType": "uint256",
          "name": "value",
          "type": "uint256"
        }
      ],
      "name": "Approval",
      "type": "event"
    },
    {
      "anonymous": false,
      "inputs": [
        {
          "indexed": true,
          "internalType": "address",
          "name": "previousOwner",
          "type": "address"
        },
        {
          "indexed": true,
          "internalType": "address",
          "name": "newOwner",
          "type": "address"
        }
      ],
      "name": "OwnershipTransferred",
      "type": "event"
    },
    {
      "anonymous": false,
      "inputs": [
        {
          "indexed": true,
          "internalType": "address",
          "name": "user",
          "type": "address"
        },
        {
          "indexed": false,
          "internalType": "uint256",
          "name": "amount",
          "type": "uint256"
        },
        {
          "indexed": false,
          "internalType": "uint256",
          "name": "timestamp",
          "type": "uint256"
        }
      ],
      "name": "Prayer",
      "type": "event"
    },
    {
      "anonymous": false,
      "inputs": [
        {
          "indexed": false,
          "internalType": "uint256",
          "name": "totalMined",
          "type": "uint256"
        },
        {
          "indexed": false,
          "internalType": "uint256",
          "name": "timestamp",
          "type": "uint256"
        }
      ],
      "name": "PrayerExhausted",
      "type": "event"
    },
    {
      "anonymous": false,
      "inputs": [
        {
          "indexed": true,
          "internalType": "address",
          "name": "from",
          "type": "address"
        },
        {
          "indexed": true,
          "internalType": "address",
          "name": "to",
          "type": "address"
        },
        {
          "indexed": false,
          "internalType": "uint256",
          "name": "value",
          "type": "uint256"
        }
      ],
      "name": "Transfer",
      "type": "event"
    },
    {
      "inputs": [],
      "name": "MAX_SUPPLY",
      "outputs": [
        {
          "internalType": "uint256",
          "name": "",
          "type": "uint256"
        }
      ],
      "stateMutability": "view",
      "type": "function"
    },
    {
      "inputs": [],
      "name": "TOKENS_PER_PRAYER",
      "outputs": [
        {
          "internalType": "uint256",
          "name": "",
          "type": "uint256"
        }
      ],
      "stateMutability": "view",
      "type": "function"
    },
    {
      "inputs": [
        {
          "internalType": "address",
          "name": "owner",
          "type": "address"
        },
        {
          "internalType": "address",
          "name": "spender",
          "type": "address"
        }
      ],
      "name": "allowance",
      "outputs": [
        {
          "internalType": "uint256",
          "name": "",
          "type": "uint256"
        }
      ],
      "stateMutability": "view",
      "type": "function"
    },
    {
      "inputs": [
        {
          "internalType": "address",
          "name": "spender",
          "type": "address"
        },
        {
          "internalType": "uint256",
          "name": "amount",
          "type": "uint256"
        }
      ],
      "name": "approve",
      "outputs": [
        {
          "internalType": "bool",
          "name": "",
          "type": "bool"
        }
      ],
      "stateMutability": "nonpayable",
      "type": "function"
    },
    {
      "inputs": [
        {
          "internalType": "address",
          "name": "account",
          "type": "address"
        }
      ],
      "name": "balanceOf",
      "outputs": [
        {
          "internalType": "uint256",
          "name": "",
          "type": "uint256"
        }
      ],
      "stateMutability": "view",
      "type": "function"
    },
    {
      "inputs": [],
      "name": "decimals",
      "outputs": [
        {
          "internalType": "uint8",
          "name": "",
          "type": "uint8"
        }
      ],
      "stateMutability": "view",
      "type": "function"
    },
    {
      "inputs": [
        {
          "internalType": "address",
          "name": "spender",
          "type": "address"
        },
        {
          "internalType": "uint256",
          "name": "subtractedValue",
          "type": "uint256"
        }
      ],
      "name": "decreaseAllowance",
      "outputs": [
        {
          "internalType": "bool",
          "name": "",
          "type": "bool"
        }
      ],
      "stateMutability": "nonpayable",
      "type": "function"
    },
    {
      "inputs": [
        {
          "internalType": "address",
          "name": "miner",
          "type": "address"
        }
      ],
      "name": "getMinerStats",
      "outputs": [
        {
          "internalType": "uint256",
          "name": "",
          "type": "uint256"
        }
      ],
      "stateMutability": "view",
      "type": "function"
    },
    {
      "inputs": [],
      "name": "getRemainingSupply",
      "outputs": [
        {
          "internalType": "uint256",
          "name": "",
          "type": "uint256"
        }
      ],
      "stateMutability": "view",
      "type": "function"
    },
    {
      "inputs": [
        {
          "internalType": "address",
          "name": "spender",
          "type": "address"
        },
        {
          "internalType": "uint256",
          "name": "addedValue",
          "type": "uint256"
        }
      ],
      "name": "increaseAllowance",
      "outputs": [
        {
          "internalType": "bool",
          "name": "",
          "type": "bool"
        }
      ],
      "stateMutability": "nonpayable",
      "type": "function"
    },
    {
      "inputs": [
        {
          "internalType": "address",
          "name": "",
          "type": "address"
        }
      ],
      "name": "minerStats",
      "outputs": [
        {
          "internalType": "uint256",
          "name": "",
          "type": "uint256"
        }
      ],
      "stateMutability": "view",
      "type": "function"
    },
    {
      "inputs": [],
      "name": "name",
      "outputs": [
        {
          "internalType": "string",
          "name": "",
          "type": "string"
        }
      ],
      "stateMutability": "view",
      "type": "function"
    },
    {
      "inputs": [],
      "name": "owner",
      "outputs": [
        {
          "internalType": "address",
          "name": "",
          "type": "address"
        }
      ],
      "stateMutability": "view",
      "type": "function"
    },
    {
      "inputs": [],
      "name": "pray",
      "outputs": [],
      "stateMutability": "nonpayable",
      "type": "function"
    },
    {
      "inputs": [],
      "name": "renounceOwnership",
      "outputs": [],
      "stateMutability": "nonpayable",
      "type": "function"
    },
    {
      "inputs": [],
      "name": "symbol",
      "outputs": [
        {
          "internalType": "string",
          "name": "",
          "type": "string"
        }
      ],
      "stateMutability": "view",
      "type": "function"
    },
    {
      "inputs": [],
      "name": "totalMined",
      "outputs": [
        {
          "internalType": "uint256",
          "name": "",
          "type": "uint256"
        }
      ],
      "stateMutability": "view",
      "type": "function"
    },
    {
      "inputs": [],
      "name": "totalSupply",
      "outputs": [
        {
          "internalType": "uint256",
          "name": "",
          "type": "uint256"
        }
      ],
      "stateMutability": "view",
      "type": "function"
    },
    {
      "inputs": [
        {
          "internalType": "address",
          "name": "to",
          "type": "address"
        },
        {
          "internalType": "uint256",
          "name": "amount",
          "type": "uint256"
        }
      ],
      "name": "transfer",
      "outputs": [
        {
          "internalType": "bool",
          "name": "",
          "type": "bool"
        }
      ],
      "stateMutability": "nonpayable",
      "type": "function"
    },
    {
      "inputs": [
        {
          "internalType": "address",
          "name": "from",
          "type": "address"
        },
        {
          "internalType": "address",
          "name": "to",
          "type": "address"
        },
        {
          "internalType": "uint256",
          "name": "amount",
          "type": "uint256"
        }
      ],
      "name": "transferFrom",
      "outputs": [
        {
          "internalType": "bool",
          "name": "",
          "type": "bool"
        }
      ],
      "stateMutability": "nonpayable",
      "type": "function"
    },
    {
      "inputs": [
        {
          "internalType": "address",
          "name": "newOwner",
          "type": "address"
        }
      ],
      "name": "transferOwnership",
      "outputs": [],
      "stateMutability": "nonpayable",
      "type": "function"
    }
  ],
  "bytecode": "0x60806040523480156200001157600080fd5b506040518060400160405280600b81526020017f466169746820546f6b656e0000000000000000000000000000000000000000008152506040518060400160405280600581526020017f464149544800000000000000000000000000000000000000000000000000000081525081600390816200008f9190620005b8565b508060049081620000a19190620005b8565b505050620000c4620000b8620000f960201b60201c565b6200010160201b60201c565b620000d5336200010160201b60201c565b620000f3336b02835cd9c6d6f2156b240000620001c760201b60201c565b620007ba565b600033905090565b6000600560009054906101000a900473ffffffffffffffffffffffffffffffffffffffff16905081600560006101000a81548173ffffffffffffffffffffffffffffffffffffffff021916908373ffffffffffffffffffffffffffffffffffffffff1602179055508173ffffffffffffffffffffffffffffffffffffffff168173ffffffffffffffffffffffffffffffffffffffff167f8be0079c531659141344cd1fd0a4f28419497f9722a3daafe3b4186f6b6457e060405160405180910390a35050565b600073ffffffffffffffffffffffffffffffffffffffff168273ffffffffffffffffffffffffffffffffffffffff160362000239576040517f08c379a0000000000000000000000000000000000000000000000000000000008152600401620002309062000700565b60405180910390fd5b6200024d600083836200033460201b60201c565b806002600082825462000261919062000751565b92505081905550806000808473ffffffffffffffffffffffffffffffffffffffff1673ffffffffffffffffffffffffffffffffffffffff168152602001908152602001600020600082825401925050819055508173ffffffffffffffffffffffffffffffffffffffff16600073ffffffffffffffffffffffffffffffffffffffff167fddf252ad1be2c89b69c2b068fc378daa952ba7f163c4a11628f55a4df523b3ef836040516200031491906200079d565b60405180910390a362000330600083836200033960201b60201c565b5050565b505050565b505050565b600081519050919050565b7f4e487b7100000000000000000000000000000000000000000000000000000000600052604160045260246000fd5b7f4e487b7100000000000000000000000000000000000000000000000000000000600052602260045260246000fd5b60006002820490506001821680620003c057607f821691505b602082108103620003d657620003d562000378565b5b50919050565b60008190508160005260206000209050919050565b60006020601f8301049050919050565b600082821b905092915050565b600060088302620004407fffffffffffffffffffffffffffffffffffffffffffffffffffffffffffffffff8262000401565b6200044c868362000401565b95508019841693508086168417925050509392505050565b6000819050919050565b6000819050919050565b600062000499620004936200048d8462000464565b6200046e565b62000464565b9050919050565b6000819050919050565b620004b58362000478565b620004cd620004c482620004a0565b8484546200040e565b825550505050565b600090565b620004e4620004d5565b620004f1818484620004aa565b505050565b5b8181101562000519576200050d600082620004da565b600181019050620004f7565b5050565b601f82111562000568576200053281620003dc565b6200053d84620003f1565b810160208510156200054d578190505b620005656200055c85620003f1565b830182620004f6565b50505b505050565b600082821c905092915050565b60006200058d600019846008026200056d565b1980831691505092915050565b6000620005a883836200057a565b9150826002028217905092915050565b620005c3826200033e565b67ffffffffffffffff811115620005df57620005de62000349565b5b620005eb8254620003a7565b620005f88282856200051d565b600060209050601f8311600181146200063057600084156200061b578287015190505b6200062785826200059a565b86555062000697565b601f1984166200064086620003dc565b60005b828110156200066a5784890151825560018201915060208501945060208101905062000643565b868310156200068a578489015162000686601f8916826200057a565b8355505b6001600288020188555050505b505050505050565b600082825260208201905092915050565b7f45524332303a206d696e7420746f20746865207a65726f206164647265737300600082015250565b6000620006e8601f836200069f565b9150620006f582620006b0565b602082019050919050565b600060208201905081810360008301526200071b81620006d9565b9050919050565b7f4e487b7100000000000000000000000000000000000000000000000000000000600052601160045260246000fd5b60006200075e8262000464565b91506200076b8362000464565b925082820190508082111562000786576200078562000722565b5b92915050565b620007978162000464565b82525050565b6000602082019050620007b460008301846200078c565b92915050565b611a0d80620007ca6000396000f3fe608060405234801561001057600080fd5b50600436106101375760003560e01c806370a08231116100b8578063a457c2d71161007c578063a457c2d714610330578063a9059cbb14610360578063dd62ed3e14610390578063e4b7fb73146103c0578063ec213dd9146103de578063f2fde38b1461040e57610137565b806370a082311461029c578063715018a6146102cc57806371c4db0a146102d65780638da5cb5b146102f457806395d89b411461031257610137565b806332cb6b0c116100ff57806332cb6b0c146101f657806334b2237a146102145780633950935114610244578063419905e5146102745780635556db651461027e57610137565b806306fdde031461013c578063095ea7b31461015a57806318160ddd1461018a57806323b872dd146101a8578063313ce567146101d8575b600080fd5b61014461042a565b6040516101519190611107565b60405180910390f35b610174600480360381019061016f91906111c2565b6104bc565b604051610181919061121d565b60405180910390f35b6101926104df565b60405161019f9190611247565b60405180910390f35b6101c260048036038101906101bd9190611262565b6104e9565b6040516101cf919061121d565b60405180910390f35b6101e0610518565b6040516101ed91906112d1565b60405180910390f35b6101fe610521565b60405161020b9190611247565b60405180910390f35b61022e600480360381019061022991906112ec565b610531565b60405161023b9190611247565b60405180910390f35b61025e600480360381019061025991906111c2565b61057a565b60405161026b919061121d565b60405180910390f35b61027c6105b1565b005b610286610759565b6040516102939190611247565b60405180910390f35b6102b660048036038101906102b191906112ec565b61075f565b6040516102c39190611247565b60405180910390f35b6102d46107a7565b005b6102de6107bb565b6040516102eb9190611247565b60405180910390f35b6102fc6107c7565b6040516103099190611328565b60405180910390f35b61031a6107f1565b6040516103279190611107565b60405180910390f35b61034a600480360381019061034591906111c2565b610883565b604051610357919061121d565b60405180910390f35b61037a600480360381019061037591906111c2565b6108fa565b604051610387919061121d565b60405180910390f35b6103aa60048036038101906103a59190611343565b61091d565b6040516103b79190611247565b60405180910390f35b6103c86109a4565b6040516103d59190611247565b60405180910390f35b6103f860048036038101906103f391906112ec565b6109bb565b6040516104059190611247565b60405180910390f35b610428600480360381019061042391906112ec565b6109d3565b005b606060038054610439906113b2565b80601f0160208091040260200160405190810160405280929190818152602001828054610465906113b2565b80156104b25780601f10610487576101008083540402835291602001916104b2565b820191906000526020600020905b81548152906001019060200180831161049557829003601f168201915b5050505050905090565b6000806104c7610a56565b90506104d4818585610a5e565b600191505092915050565b6000600254905090565b6000806104f4610a56565b9050610501858285610c27565b61050c858585610cb3565b60019150509392505050565b60006012905090565b6b02835cd9c6d6f2156b24000081565b6000600760008373ffffffffffffffffffffffffffffffffffffffff1673ffffffffffffffffffffffffffffffffffffffff168152602001908152602001600020549050919050565b600080610585610a56565b90506105a6818585610597858961091d565b6105a19190611412565b610a5e565b600191505092915050565b670de0b6b3a76400006105ca6105c56107c7565b61075f565b101561060b576040517f08c379a0000000000000000000000000000000000000000000000000000000008152600401610602906114b8565b60405180910390fd5b6106256106166107c7565b33670de0b6b3a7640000610cb3565b670de0b6b3a7640000600760003373ffffffffffffffffffffffffffffffffffffffff1673ffffffffffffffffffffffffffffffffffffffff168152602001908152602001600020600082825461067c9190611412565b92505081905550670de0b6b3a76400006006600082825461069d9190611412565b925050819055503373ffffffffffffffffffffffffffffffffffffffff167f49d248873c32016e684f9758a3ba1cc6be580cbf8351089b967955fdfb0c68a8670de0b6b3a7640000426040516106f49291906114d8565b60405180910390a2670de0b6b3a76400006107156107106107c7565b61075f565b1015610757577f9f6ce57f3e90240c4817487f9649ae85f20cc41dcd135711b3ad49acdac2bbe56006544260405161074e9291906114d8565b60405180910390a15b565b60065481565b60008060008373ffffffffffffffffffffffffffffffffffffffff1673ffffffffffffffffffffffffffffffffffffffff168152602001908152602001600020549050919050565b6107af610f29565b6107b96000610fa7565b565b670de0b6b3a764000081565b6000600560009054906101000a900473ffffffffffffffffffffffffffffffffffffffff16905090565b606060048054610800906113b2565b80601f016020809104026020016040519081016040528092919081815260200182805461082c906113b2565b80156108795780601f1061084e57610100808354040283529160200191610879565b820191906000526020600020905b81548152906001019060200180831161085c57829003601f168201915b5050505050905090565b60008061088e610a56565b9050600061089c828661091d565b9050838110156108e1576040517f08c379a00000000000000000000000000000000000000000000000000000000081526004016108d890611573565b60405180910390fd5b6108ee8286868403610a5e565b60019250505092915050565b600080610905610a56565b9050610912818585610cb3565b600191505092915050565b6000600160008473ffffffffffffffffffffffffffffffffffffffff1673ffffffffffffffffffffffffffffffffffffffff16815260200190815260200160002060008373ffffffffffffffffffffffffffffffffffffffff1673ffffffffffffffffffffffffffffffffffffffff16815260200190815260200160002054905092915050565b60006109b66109b16107c7565b61075f565b905090565b60076020528060005260406000206000915090505481565b6109db610f29565b600073ffffffffffffffffffffffffffffffffffffffff168173ffffffffffffffffffffffffffffffffffffffff1603610a4a576040517f08c379a0000000000000000000000000000000000000000000000000000000008152600401610a4190611605565b60405180910390fd5b610a5381610fa7565b50565b600033905090565b600073ffffffffffffffffffffffffffffffffffffffff168373ffffffffffffffffffffffffffffffffffffffff1603610acd576040517f08c379a0000000000000000000000000000000000000000000000000000000008152600401610ac490611697565b60405180910390fd5b600073ffffffffffffffffffffffffffffffffffffffff168273ffffffffffffffffffffffffffffffffffffffff1603610b3c576040517f08c379a0000000000000000000000000000000000000000000000000000000008152600401610b3390611729565b60405180910390fd5b80600160008573ffffffffffffffffffffffffffffffffffffffff1673ffffffffffffffffffffffffffffffffffffffff16815260200190815260200160002060008473ffffffffffffffffffffffffffffffffffffffff1673ffffffffffffffffffffffffffffffffffffffff168152602001908152602001600020819055508173ffffffffffffffffffffffffffffffffffffffff168373ffffffffffffffffffffffffffffffffffffffff167f8c5be1e5ebec7d5bd14f71427d1e84f3dd0314c0f7b2291e5b200ac8c7c3b92583604051610c1a9190611247565b60405180910390a3505050565b6000610c33848461091d565b90507fffffffffffffffffffffffffffffffffffffffffffffffffffffffffffffffff8114610cad5781811015610c9f576040517f08c379a0000000000000000000000000000000000000000000000000000000008152600401610c9690611795565b60405180910390fd5b610cac8484848403610a5e565b5b50505050565b600073ffffffffffffffffffffffffffffffffffffffff168373ffffffffffffffffffffffffffffffffffffffff1603610d22576040517f08c379a0000000000000000000000000000000000000000000000000000000008152600401610d1990611827565b60405180910390fd5b600073ffffffffffffffffffffffffffffffffffffffff168273ffffffffffffffffffffffffffffffffffffffff1603610d91576040517f08c379a0000000000000000000000000000000000000000000000000000000008152600401610d88906118b9565b60405180910390fd5b610d9c83838361106d565b60008060008573ffffffffffffffffffffffffffffffffffffffff1673ffffffffffffffffffffffffffffffffffffffff16815260200190815260200160002054905081811015610e22576040517f08c379a0000000000000000000000000000000000000000000000000000000008152600401610e199061194b565b60405180910390fd5b8181036000808673ffffffffffffffffffffffffffffffffffffffff1673ffffffffffffffffffffffffffffffffffffffff16815260200190815260200160002081905550816000808573ffffffffffffffffffffffffffffffffffffffff1673ffffffffffffffffffffffffffffffffffffffff168152602001908152602001600020600082825401925050819055508273ffffffffffffffffffffffffffffffffffffffff168473ffffffffffffffffffffffffffffffffffffffff167fddf252ad1be2c89b69c2b068fc378daa952ba7f163c4a11628f55a4df523b3ef84604051610f109190611247565b60405180910390a3610f23848484611072565b50505050565b610f31610a56565b73ffffffffffffffffffffffffffffffffffffffff16610f4f6107c7565b73ffffffffffffffffffffffffffffffffffffffff1614610fa5576040517f08c379a0000000000000000000000000000000000000000000000000000000008152600401610f9c906119b7565b60405180910390fd5b565b6000600560009054906101000a900473ffffffffffffffffffffffffffffffffffffffff16905081600560006101000a81548173ffffffffffffffffffffffffffffffffffffffff021916908373ffffffffffffffffffffffffffffffffffffffff1602179055508173ffffffffffffffffffffffffffffffffffffffff168173ffffffffffffffffffffffffffffffffffffffff167f8be0079c531659141344cd1fd0a4f28419497f9722a3daafe3b4186f6b6457e060405160405180910390a35050565b505050565b505050565b600081519050919050565b600082825260208201905092915050565b60005b838110156110b1578082015181840152602081019050611096565b60008484015250505050565b6000601f19601f8301169050919050565b60006110d982611077565b6110e38185611082565b93506110f3818560208601611093565b6110fc816110bd565b840191505092915050565b6000602082019050818103600083015261112181846110ce565b905092915050565b600080fd5b600073ffffffffffffffffffffffffffffffffffffffff82169050919050565b60006111598261112e565b9050919050565b6111698161114e565b811461117457600080fd5b50565b60008135905061118681611160565b92915050565b6000819050919050565b61119f8161118c565b81146111aa57600080fd5b50565b6000813590506111bc81611196565b92915050565b600080604083850312156111d9576111d8611129565b5b60006111e785828601611177565b92505060206111f8858286016111ad565b9150509250929050565b60008115159050919050565b61121781611202565b82525050565b6000602082019050611232600083018461120e565b92915050565b6112418161118c565b82525050565b600060208201905061125c6000830184611238565b92915050565b60008060006060848603121561127b5761127a611129565b5b600061128986828701611177565b935050602061129a86828701611177565b92505060406112ab868287016111ad565b9150509250925092565b600060ff82169050919050565b6112cb816112b5565b82525050565b60006020820190506112e660008301846112c2565b92915050565b60006020828403121561130257611301611129565b5b600061131084828501611177565b91505092915050565b6113228161114e565b82525050565b600060208201905061133d6000830184611319565b92915050565b6000806040838503121561135a57611359611129565b5b600061136885828601611177565b925050602061137985828601611177565b9150509250929050565b7f4e487b7100000000000000000000000000000000000000000000000000000000600052602260045260246000fd5b600060028204905060018216806113ca57607f821691505b6020821081036113dd576113dc611383565b5b50919050565b7f4e487b7100000000000000000000000000000000000000000000000000000000600052601160045260246000fd5b600061141d8261118c565b91506114288361118c565b92508282019050808211156114405761143f6113e3565b5b92915050565b7f4e6f206d6f726520746f6b656e7320617661696c61626c6520666f722070726160008201527f7965720000000000000000000000000000000000000000000000000000000000602082015250565b60006114a2602383611082565b91506114ad82611446565b604082019050919050565b600060208201905081810360008301526114d181611495565b9050919050565b60006040820190506114ed6000830185611238565b6114fa6020830184611238565b9392505050565b7f45524332303a2064656372656173656420616c6c6f77616e63652062656c6f7760008201527f207a65726f000000000000000000000000000000000000000000000000000000602082015250565b600061155d602583611082565b915061156882611501565b604082019050919050565b6000602082019050818103600083015261158c81611550565b9050919050565b7f4f776e61626c653a206e6577206f776e657220697320746865207a65726f206160008201527f6464726573730000000000000000000000000000000000000000000000000000602082015250565b60006115ef602683611082565b91506115fa82611593565b604082019050919050565b6000602082019050818103600083015261161e816115e2565b9050919050565b7f45524332303a20617070726f76652066726f6d20746865207a65726f2061646460008201527f7265737300000000000000000000000000000000000000000000000000000000602082015250565b6000611681602483611082565b915061168c82611625565b604082019050919050565b600060208201905081810360008301526116b081611674565b9050919050565b7f45524332303a20617070726f766520746f20746865207a65726f20616464726560008201527f7373000000000000000000000000000000000000000000000000000000000000602082015250565b6000611713602283611082565b915061171e826116b7565b604082019050919050565b6000602082019050818103600083015261174281611706565b9050919050565b7f45524332303a20696e73756666696369656e7420616c6c6f77616e6365000000600082015250565b600061177f601d83611082565b915061178a82611749565b602082019050919050565b600060208201905081810360008301526117ae81611772565b9050919050565b7f45524332303a207472616e736665722066726f6d20746865207a65726f20616460008201527f6472657373000000000000000000000000000000000000000000000000000000602082015250565b6000611811602583611082565b915061181c826117b5565b604082019050919050565b6000602082019050818103600083015261184081611804565b9050919050565b7f45524332303a207472616e7366657220746f20746865207a65726f206164647260008201527f6573730000000000000000000000000000000000000000000000000000000000602082015250565b60006118a3602383611082565b91506118ae82611847565b604082019050919050565b600060208201905081810360008301526118d281611896565b9050919050565b7f45524332303a207472616e7366657220616d6f756e742065786365656473206260008201527f616c616e63650000000000000000000000000000000000000000000000000000602082015250565b6000611935602683611082565b9150611940826118d9565b604082019050919050565b6000602082019050818103600083015261196481611928565b9050919050565b7f4f776e61626c653a2063616c6c6572206973206e6f7420746865206f776e6572600082015250565b60006119a1602083611082565b91506119ac8261196b565b602082019050919050565b600060208201905081810360008301526119d081611994565b905091905056fea26469706673582212202c83b90fc8e05f386f8ecefff4081f9e5487c3c96e44b0247c5afe722d6a861064736f6c63430008160033",
  "linkReferences": {},
  "deployedLinkReferences": {}
}